:020000040800F2
:10000000184900204D020008451300083D13000860
:1000100041130008910B00087F1C0008000000003D
:10002000000000000000000000000000B501000812
:10003000BB0F000800000000F9010008511600087D
:1000400067020008670200086702000867020008EC
:1000500067020008670200086702000867020008DC
:1000600067020008670200086702000867020008CC
:10007000950B0008E50B0008390C0008910C0008EE
:10008000E50C0008390D0008670200086702000847
:10009000670200086702000867020008670200089C
:1000A000670200086702000867020008670200088C
:1000B000670200086702000867020008670200087C
:1000C000670200086702000867020008670200086C
:1000D00067020008C1160008F1170008151900088A
:1000E00067020008670200086702000800F002F8D3
:1000F00000F051F80AA090E8000C82448344AAF171
:100100000107DA4501D100F046F8AFF2090EBAE86E
:100110000F0013F0010F18BFFB1A43F0010318473B
:100120004472000064720000103A24BF78C878C19D
:10013000FAD8520724BF30C830C144BF04680C60ED
:10014000704700000023002400250026103A28BF35
:1001500078C1FBD8520728BF30C148BF0B60704739
:10016000642900F0DF80752900F0DC80632900F04D
:100170005C83732900F06183002070471FB500F095
:10018000ABFC04000020002106F0A4FF401C6060CE
:100190001FBD10B510BD00F079FC1146FFF7EEFF52
:1001A00003F090F900F0AAFC03B4FFF7F2FF03BCE0
:1001B00001F06EFD224B19680868B0E8F00F80F37B
:1001C0000988BFF36F8F4FF0000080F311884EF065
:1001D0000D0E70470000000006480068006880F3BC
:1001E000088862B661B6BFF34F8FBFF36F8F00DF31
:1001F00000BF00BF08ED00E0EFF30980BFF36F8F91
:100200000F4B1A6820E9F00F106008B54FF050004E
:1002100080F31188BFF34F8FBFF36F8F06F00AF89A
:100220004FF0000080F31188BDE8084019680868A5
:10023000B0E8F00F80F30988BFF36F8F704700BFFD
:1002400060000020EFF305807047000009488047F8
:1002500009480047FEE7FEE7FEE7FEE7FEE7FEE7A8
:10026000FEE7FEE7FEE7FEE704480549054A064BC0
:100270007047000061160008ED00000818430020D8
:10028000184900201845002018450020704700003C
:100290000FB4044910B503AA029800F0D3FA10BCB9
:1002A0005DF814FBB80000200FB41CB5074B06AA7C
:1002B0007B4469460090059800F095FA0020694655
:1002C00000F0A4FA1CBC5DF814FB00005905000006
:1002D00070B50C460546012A05D02878800600D561
:1002E000EA69002302E0012305E05B1C934202D28D
:1002F000E05C0028F9D1A869E618C01AA861286A4C
:10030000184428622846AFF3008004E0D5E90121B3
:1003100014F8010B9047B442F8D32846AFF300809D
:1003200070BD00002DE9F0410646002410687529D3
:10033000314616A510D0AFF30080002802DA404203
:1003400013A507E031688A0701D512A502E0490725
:1003500004D511A5012401E0AFF3008000210A2299
:1003600006F1240709E0B0FBF2FCB0FBF2F302FB5C
:100370001C00303078541846491C0028F3D123461D
:100380002A463046BDE8F04100F0CFB90000000039
:100390002D0000002B000000200000002DE9F05F80
:1003A000894604464FF0000ADFF874B1FB44C0F8F8
:1003B00020A02046E1688847002874D0252806D070
:1003C000D4E901219047206A401C2062F1E7002611
:1003D0005F462046E16888472028054607DB312D27
:1003E00005D2781910F8200C08B10643F1E7B007E0
:1003F00001D526F00406C4F81CA00027C4F818A0F4
:100400002A2D09D0284601F03CFC38B304EB8708BC
:10041000303DC8F8185019E059F8041B204604EB89
:1004200087029161E1688847012F054618D1E0698C
:10043000002820DA26F020061DE0D8F8180000EB8E
:10044000800005EB40003038C8F818002046E1680D
:100450008847054601F015FC0028EED1012F0AD08F
:100460002E2D08D12046E16888477F1C0546022FC3
:1004700046F02006C4DBA069002803DA404246F0BB
:100480000106A061F00701D026F010066C2D0BD0FC
:10049000682D09D04C2D39D06A2D35D0742D35D02A
:1004A0007A2D33D016E038E0E1682F4620468847A1
:1004B000B842054609D16C2F26D04FF48060E16820
:1004C000064320468847054604E06C2F1AD04FF4B7
:1004D000807006430DB3A5F14100192802D82035DC
:1004E00046F400664A462946204626604E46FFF7F7
:1004F00037FE80B101280BD0F61D26F0070000F171
:10050000080956E74020E4E78020D8E70020D6E736
:1005100006F104094DE7284652E7206ABDE8F09F3E
:10052000A06F000070B5064600F0EEF804680546BE
:1005300030460A22002100F097F92C6070BD40EA95
:100540000103024630B59B0710D14FF0013400E0A3
:1005500008C208C91D1B9D4315EAC41FF8D013F03B
:10056000FF0102F8011B0DD01B0AF8E711F8013B4F
:10057000002B02F8013B05D011F8013B002B02F8DB
:10058000013BF3D130BD2DE9F041054690460E46C2
:100590000020044600E0641C44450BD2285D00F0B6
:1005A000B7F80746305D00F0B3F8381A02D1295D7C
:1005B0000029F0D1BDE8F08110B5431C02E010F82D
:1005C000011B71B18107FAD14FF0013202C88C1AB8
:1005D0008C4314EAC211F9D0C01A0A0603D0C01E17
:1005E00010BDC01A10BD0A0401D0801E10BD090242
:1005F000FCD0401E10BD421E12F8013F002BFBD163
:1006000011F8013B002B02F8013BF9D17047032A96
:1006100040F2308010F0030C00F0158011F8013B1F
:10062000BCF1020F624498BF11F801CB00F8013B06
:1006300038BF11F8013BA2F1040298BF00F801CBCA
:1006400038BF00F8013B11F0030300F04581083A80
:10065000C0F0088051F8043B083A51F804CBA0E8F8
:100660000810F5E7121D5CBF51F8043B40F8043B4D
:10067000AFF30080D20724BF11F8013B11F801CB82
:1006800048BF11F8012B24BF00F8013B00F801CB53
:1006900048BF00F8012B704702F0FF0343EA032232
:1006A00042EA024200F04CB910B5044610F0030FC4
:1006B00008BF11F0030F40F015804FF0013E121FEC
:1006C000C0F20E8051F8043BA3EB0E0C2CEA030C95
:1006D0001CEACE1C08BF40F8043BF0D0A1F1040195
:1006E00002F10402521E08DB11F8013B002B00F856
:1006F000013BF7D1114600F021F9204610BD7047AB
:10070000704770477047000000487047B8420020AB
:1007100010B5044600F038F90068005DC00602D547
:1007200004F1200010BD204610BD2DE9F0470D4614
:1007300099469246044600F124080168880604D5CB
:10074000E06921F01001216000E00120A84201DDF4
:10075000471B00E00027A1697A1902EB0900081A7B
:10076000A0612078C00602D42046AFF300800026A6
:1007700008E0D4E901211AF806009047206A401CDD
:10078000761C20624E45F4DB2078C0060AD5204650
:10079000AFF3008006E0D4E9012130209047206AC1
:1007A000401C2062381EA7F10107F4DC07E0D4E901
:1007B000012118F805009047206A401C2062281E7D
:1007C000A5F10105F3DC2046AFF300802078000698
:1007D00002D50220BDE8F0870120FBE701694A1C31
:1007E00002610878704700B58FB0CDE90131002172
:1007F000059105497944CDE9031011466846FFF794
:10080000CDFD0FB000BD0000E5FFFFFF0A6802F854
:10081000010B0A60704710B5436913B1AFF3008054
:1008200001E0FFF755FD012010BD127800F1240111
:100830000A7000224A700122EDE711684FF0FF3282
:10084000E9E70000074B70B50D467B44FFF7CBFF8F
:100850000446284600F0EFF810B14FF0FF3070BDAD
:10086000204670BD4B2900002DE9F04791460F4608
:1008700080460446002614F8015B2DB100F084F890
:100880000068405DC007F6D12B2D02D02D2D18D069
:10089000641E4A463946204600F07EF827B1396882
:1008A000A14201D1C7F800804FF0020471050BD5B9
:1008B0004042002803DDFFF727FF0460A007BDE8E2
:1008C000F08746F48066E4E70028F8DAFFF71CFFBB
:1008D00004606FF00040F2E710B5203AC0F00B80E2
:1008E000B1E81850203AA0E81850B1E81850A0E834
:1008F0001850BFF4F5AF5FEA027C24BFB1E818508E
:10090000A0E8185044BF18C918C0BDE810405FEAFD
:10091000827C24BF51F8043B40F8043B08BF704779
:10092000D20728BF31F8023B48BF11F8012B28BF7E
:1009300020F8023B48BF00F8012B70474FF000023F
:100940000429C0F0128010F0030C00F07A80CCF182
:10095000040CBCF1020F18BF00F8012BA8BF20F84F
:10096000022BA1EB0C0100F06CB85FEAC17C24BF44
:1009700000F8012B00F8012B48BF00F8012B70474D
:1009800000487047B842002010B500F0A5F8001DDF
:1009900010BD00BF416700002DE9F05F824615469B
:1009A0008B4600270AF10104B9460078302801D0AF
:1009B0009DB113E014F8010B0127782803D05828C3
:1009C00001D045B10AE00DB1102D07D1002714F870
:1009D000010B102502E0082500E00A250026B0469C
:1009E0000EE005FB080005FB06F101271FFA80F861
:1009F00001EB1046B6F5803F00D3B94614F8010B61
:100A0000294600F06DF80028EBDABBF1000F05D0A5
:100A10000FB1641E00E05446CBF80040B9F1000F5E
:100A200006D0FFF771FE02210160C81EBDE8F09FED
:100A300048EA0640FAE7007B00F0800070474FF07C
:100A4000000200B5134694469646203922BFA0E81E
:100A50000C50A0E80C50B1F12001BFF4F7AF09072A
:100A600028BFA0E80C5048BF0CC05DF804EB89001B
:100A700028BF40F8042B08BF704748BF20F8022B5E
:100A800011F0804F18BF00F8012B70477546FFF733
:100A900077FFAE4605006946534620F007008546BD
:100AA00018B020B5FFF7E0FBBDE820404FF000068E
:100AB0004FF000074FF000084FF0000B21F0070146
:100AC000AC46ACE8C009ACE8C009ACE8C009ACE889
:100AD000C0098D467047000000487047D84200208A
:100AE0003A2800D2303820F02002412A01D3A2F166
:100AF0003700884201D34FF0FF30704710B50446ED
:100B0000AFF300802046BDE81040FFF74DBB00006A
:100B10004FF0013C50F8042B51F8043B9A4221D18C
:100B2000A2EB0C03934313EACC1317D150F8042B18
:100B300051F8043B9A4215D1A2EB0C03934313EAFC
:100B4000CC130BD150F8042B51F8043B9A4209D135
:100B5000A2EB0C03934313EACC13DBD04FF000005D
:100B6000704700BFD01A01BAB1FA81F101F0180143
:100B700022FA01F0CB40C1F12001DBB2C0B2C01AB1
:100B80002CFA01F3D11A914311EAC311E6D170474F
:100B900000BFFEE710B5202000F0D2F9012802D1F5
:100BA000202000F009F9802000F0CAF9012802D1C4
:100BB000802000F001F9102000F0C2F9012802D1D4
:100BC000102000F0F9F8402000F0BAF9012802D115
:100BD000402000F0F1F80021014800F0FBF810BDC2
:100BE0001C00024010B54FF4007000F0A9F9012874
:100BF00002D1400200F0E0F84FF4006000F0A0F9EC
:100C0000012802D1C00200F0D7F84FF4007000F0C4
:100C1000D3F84FF4006000F0CFF80021054800F051
:100C2000D9F864200349303948630121014800F0B4
:100C3000D1F810BD3000024010B54FF4005000F064
:100C40007FF9012802D1400300F0B6F84FF40040CC
:100C500000F076F9012802D1C00300F0ADF84FF49E
:100C6000805000F06DF9012802D1000300F0A4F8D3
:100C70004FF4804000F064F9012802D1800300F0B5
:100C80009BF80021014800F0A5F810BD4400024087
:100C900010B54FF4003000F053F9012802D14004A0
:100CA00000F08AF84FF4002000F04AF9012802D140
:100CB000C00400F081F84FF4003000F07DF84FF4EC
:100CC000002000F079F80021054800F083F8642046
:100CD00003495839C8650121014800F07BF810BD6F
:100CE0005800024010B54FF4001000F029F9012817
:100CF00002D1400500F060F84FF4000000F020F948
:100D0000012802D1C00500F057F84FF4001000F0A0
:100D100053F84FF4000000F04FF80021054800F0B0
:100D200059F8642003496C3908670121014800F033
:100D300051F810BD6C00024010B54FF0007000F08B
:100D4000FFF8012802D1400600F036F84FF00060AD
:100D500000F0F6F8012802D1C00600F02DF84FF09F
:100D6000807000F0EDF8012802D1000600F024F8B0
:100D70004FF0806000F0E4F8012802D1800600F016
:100D80001BF80021034800F025F80348006880475D
:100D900010BD000080000240CC00002000F0805117
:100DA00011B10349086001E0024948607047000042
:100DB000040402400000024000F0805111B10349D8
:100DC000086001E0024948607047000004040240E6
:100DD0000000024021B1026842F00102026004E01A
:100DE00002684FF6FE731A400260704701684FF6C2
:100DF000FE72114001600021016041608160C160AC
:100E00004B49884208D14A490839496841F00F01E5
:100E1000474A083A51608AE045491431884208D16E
:100E200043490839496841F0F001414A083A5160A4
:100E30007DE03F492831884208D13D490839496859
:100E400041F470613A4A083A516070E038493C31E7
:100E5000884208D136490839496841F47041344A1A
:100E6000083A516063E032495031884208D1304934
:100E70000839496841F470212D4A083A516056E01A
:100E80002B496431884208D129490839496841F41D
:100E90007001274A083A516049E025497831884273
:100EA00008D123490839496841F07061204A083A5D
:100EB00051603CE01F49884206D1011F096841F09A
:100EC0000F01021F116032E01A491431884208D123
:100ED0001849091F096841F0F001164A121F1160F4
:100EE00025E014492831884208D11249091F0968B0
:100EF00041F470610F4A121F116018E00D493C3136
:100F0000884208D10B49091F096841F47041094A18
:100F1000121F11600BE007495031884207D1054983
:100F2000091F096841F47021024A121F11607047BD
:100F300008000240080402400146486880B2704739
:100F400001460020002201F0805313B1054B1A68BE
:100F500001E0054B1A6802EA01030BB1012000E031
:100F60000020704700040240000002401AB10368EC
:100F70000B43036002E003688B430360704710B5C6
:100F80000022026847F6F0739A430C6A8B68234389
:100F90000C6923434C6923438C692343CC69234365
:100FA0004C6A23438C6A23431A430260CB68436034
:100FB0000B6883604B68C36010BD70470149C8600F
:100FC000704700000020024030B5044604254FF46D
:100FD000302000F007F90546042D17D10C480069B0
:100FE00040F002000A49086108464461006940F087
:100FF000400008614FF4302000F0F4F80546044842
:10100000006941F6FD71084001490861284630BD7C
:101010000020024004200B49C96801F0010109B118
:1010200001200EE00749C96801F0040109B102205E
:1010300007E00449C96801F0100109B1032000E08C
:10104000042070470020024000200449C96901F0D3
:10105000020109B1012000E0002070470020024099
:101060000348006940F080000149086170470000B2
:101070000020024070B504460D460426F00200F040
:10108000B1F80646042E11D10948006940F001006C
:10109000074908612580F00200F0A4F806460448DC
:1010A000006941F6FE71084001490861304670BD93
:1010B0000020024078B506460C460425002000902A
:1010C000E80200F08FF80546042D24D1134800698A
:1010D00040F00100114908613480E80200F082F814
:1010E0000546042D10D1B01C0090200C00990880FA
:1010F000E80200F077F805460848006941F6FE71FD
:1011000008400649086106E00448006941F6FE719E
:10111000084002490861284678BD000000200240CE
:1011200030B5054604244FF4302000F05BF8044647
:10113000042C41D121482249886022488860084611
:10114000006940F0200008610846006940F0400056
:1011500008614FF4302000F045F80446042C22D1F9
:101160001748006941F6DF710840154908610846D3
:10117000006940F0100008611DB10020124908808C
:1011800002E0A520104908804FF4302000F02AF832
:101190000446052C10D00A48006941F6EF7108405A
:1011A0000749086108E0052C06D00548006941F6AA
:1011B000DF71084002490861204630BD23016745C0
:1011C00000200240AB89EFCD00F8FF1F0248034921
:1011D000486003484860704723016745002002408B
:1011E000AB89EFCD00B502460423FFF713FF03469A
:1011F00003E0FFF70FFF0346521E012B01D1002A27
:10120000F7D102B90523184600BD10B5FFF71CFF42
:10121000012804D00120FFF783FF012010BD00202A
:10122000FCE72DE9F04102460025002600200023BE
:101230000024002791F803C00CF00F0591F803C0BB
:101240000CF0100CBCF1000F03D091F802C04CEA76
:10125000050591F800C0BCF1000F31D014680020E2
:101260002BE04FF0010C0CFA00F3B1F800C00CEACF
:1012700003069E4220D183004FF00F0C0CFA03F7B7
:10128000BC4305FA03FC4CEA040491F803C0BCF12A
:10129000280F06D14FF0010C0CFA00FCC2F814C064
:1012A0000AE091F803C0BCF1480F05D14FF0010CE2
:1012B0000CFA00FCC2F810C0401C0828D1D31460FE
:1012C000B1F800C0BCF1FF0F34DD546800202EE0FF
:1012D00000F1080C4FF0010808FA0CF3B1F800C057
:1012E0000CEA03069E4221D183004FF00F0C0CFA4A
:1012F00003F7BC4305FA03FC4CEA040491F803C06D
:10130000BCF1280F05D100F1080C08FA0CF8C2F85E
:10131000148091F803C0BCF1480F07D100F1080C0C
:101320004FF0010808FA0CF8C2F81080401C082899
:10133000CED35460BDE8F0814161704700BFFEE745
:1013400000BFFEE77047000070B5002100230F22A8
:10135000C47804B3154C246804F4E064C4F5E06474
:10136000210AC1F10403CA40447804FA03F18478E5
:101370001440214309010E4C0678A155047804F06D
:101380001F050124AC4005786D11AD0005F1E02585
:10139000C5F8004109E0047804F01F050124AC40C1
:1013A000044D0678761145F8264070BD0CED00E03E
:1013B00000E400E080E100E002490143024A1160DC
:1013C000704700000000FA050CED00E029B1064A64
:1013D00052690243044B5A6104E0034A5269824352
:1013E000014B5A61704700000010024029B1064AC3
:1013F000D2690243044BDA6104E0034AD2698243B2
:10140000014BDA61704700000010024029B1064A22
:1014100012690243044B1A6104E0034A12698243D1
:10142000014B1A61704700000010024029B1064AC2
:1014300092690243044B9A6104E0034A9269824331
:10144000014B9A61704700000010024029B1064A22
:10145000D2680243044BDA6004E0034AD268824354
:10146000014BDA60704700000010024030B50021E7
:101470000022002400232D4D6D6805F00C0121B1E0
:10148000042905D0082923D105E0294D056022E073
:10149000274D05601FE0254D6D6805F47012234D42
:1014A0006D6805F48034022505EB92421CB9214D8C
:1014B000554305600BE01D4D6D6805F400351DB109
:1014C0001C4D5543056002E0194D5543056002E08F
:1014D000174D056000BF00BF144D6D6805F0F001A9
:1014E0000909154D6B5C0568DD4045600F4D6D6861
:1014F00005F4E061090A104D6B5C4568DD408560CC
:101500000A4D6D6805F46051C90A0B4D6B5C456866
:10151000DD40C560054D6D6805F44041890B074D00
:101520006B5CC568B5FBF3F5056130BD001002408A
:1015300000127A0000093D00280000203800002039
:1015400010B500F001F810BD0CB50020019000901E
:101550003348006840F480303149086000BF3048AB
:10156000006800F4003000900198401C0190009841
:1015700018B90198B0F5A06FF1D12948006800F4BE
:10158000003010B10120009001E000200090009890
:10159000012843D12348006840F010002149086029
:1015A0000846006820F0030008600846006840F024
:1015B000020008601A4840681949486008464068B7
:1015C00048600846406840F48060486008464068CB
:1015D00020F47C1048600846406840F4E8104860F9
:1015E0000846006840F08070086000BF0C48006842
:1015F00000F000700028F9D00948406820F003008E
:10160000074948600846406840F00200486000BF53
:101610000348406800F00C000828F9D10CBD000018
:101620000010024000200240042808D14FF0E021C1
:10163000096941F004014FF0E022116107E04FF029
:10164000E021096921F004014FF0E02211617047A7
:1016500010B505F097FA012801D004F09BFE10BDEB
:1016600010B51348006840F00100114908600846B1
:101670004068104908400E494860084600680E4915
:1016800008400B4908600846006820F48020086084
:101690000846406820F4FE0048604FF41F00886050
:1016A000FFF74EFF4FF000600449086010BD0000D6
:1016B000001002400000FFF8FFFFF6FE08ED00E01A
:1016C00010B500BF40F22771434800F017FA20B16F
:1016D00040F22771404800F09EF940F226613E48F2
:1016E00000F00CFA50B140F226613B4800F093F94B
:1016F000002240F22661384800F02AFA40F22551D3
:10170000354800F0FBF920B140F22551324800F095
:1017100082F94FF45871304800F0F0F940B12E488A
:1017200000F0A8FA04464FF458712B4800F073F902
:1017300040F22441284800F0E1F9E0B3264800F0E7
:1017400099FA044600212548FFF744FB40F2244162
:10175000214800F060F901202149897C01EB410119
:10176000204A02EB810108721C48FFF7E5FB1C4987
:101770000968081A1A49897C01EB4101194A42F8A3
:1017800021001749897C01EB410102EB81001649D8
:1017900009688847154800681349086001F0C0FCD3
:1017A00040680E49583948660D480068C8650121EF
:1017B0000A48FFF70FFB4FF45A71074800F09EF9F3
:1017C00040B1054800F056FA04464FF45A710248F9
:1017D00000F021F910BD000000380140580002401F
:1017E0007C410020A4400020C0000020C400002054
:1017F00010B500BF40F22771414800F07FF920B1D9
:1018000040F227713E4800F006F940F226613C485C
:1018100000F074F950B140F22661394800F0FBF84D
:10182000002240F22661364800F092F940F225513C
:10183000334800F063F920B140F22551304800F000
:10184000EAF84FF458712E4800F058F940B12C488E
:1018500000F010FA04464FF45871294800F0DBF804
:1018600040F22441264800F049F9C0B3244800F072
:1018700001FA044600212348FFF7ACFA40F2244164
:101880001F4800F0C8F801201F49C97C01EB410145
:101890001E4A02EB810108721A48FFF74DFB1A49F4
:1018A0000968081A1849C97C01EB4101174A42F836
:1018B00021001549C97C01EB410102EB810014496B
:1018C0000968884703F006FE40680E496C3988674E
:1018D0000D480068086701210A48FFF77BFA4FF4BA
:1018E0005A71074800F00AF940B1054800F0C2F902
:1018F00004464FF45A71024800F08DF810BD000004
:10190000004400406C0002407C4100200441002063
:10191000D000002010B500BF40F22771354800F01C
:10192000EDF820B140F22771324800F074F840F22F
:101930002661304800F0E2F850B140F226612D48AF
:1019400000F069F8002240F226612A4800F000F910
:1019500040F22551274800F0D1F820B140F225513E
:10196000244800F058F84FF45871224800F0C6F8A7
:1019700040B1204800F07EF904464FF458711D48EC
:1019800000F049F840F224411A4800F0B7F800B3DB
:10199000184800F06FF9044600211748FFF71AFABB
:1019A00040F22441134800F036F81348FFF7C4FA18
:1019B000C0F16400114981F86400084610490968C3
:1019C000884764200C493039486301210A48FFF7F1
:1019D00001FA4FF45A71074800F090F840B10548F9
:1019E00000F048F904464FF45A71024800F013F829
:1019F00010BD000000480040300002403C40002084
:101A0000B400002001F40072B2F5007F00D100BFE5
:101A1000CA430280704710B50022002340F66A14C2
:101A2000A14200D100BF0A1201249440A3B2DC43BA
:101A3000048010BD21B1828942F40052828104E009
:101A400082894DF6FF731A40828170471AB1838AEA
:101A50000B43838202E0838A8B43838270470000BA
:101A600010B504462048844209D101218803FFF7BC
:101A7000EDFC00214FF48040FFF7E8FC32E01B480A
:101A8000844209D101214804FFF7C0FC00214FF432
:101A90000030FFF7BBFC25E01548844209D1012145
:101AA0008804FFF7B3FC00214FF48020FFF7AEFC61
:101AB00018E01048844209D10121C804FFF7A6FCB0
:101AC00000214FF40020FFF7A1FC0BE00A488442FC
:101AD00008D101210805FFF799FC00214FF480107F
:101AE000FFF794FC10BD00000038014000440040A6
:101AF00000480040004C00400050004070B50246D5
:101B0000002400230025002040F66A16B14200D1CF
:101B100000BFC1F3421501F01F03012606FA03F3CB
:101B2000012D02D19689334006E0022D02D1168A9A
:101B3000334001E0968A33400C12012606FA04F481
:101B40001688344013B10CB1012000E0002070BDB4
:101B5000F0B50346002400260025002040F66A1751
:101B6000B94200D100BF1846C1F3421401F01F066C
:101B7000012707FA06F5012C01D10C3004E0022CF4
:101B800001D1103000E014301AB107682F4307600C
:101B900002E00768AF430760F0BD00002DE9F047A1
:101BA00086B005460E460024A24600BFA146002787
:101BB000B08900B100BF2F462C8A4CF6FF7004405C
:101BC000F08804432C82AC894EF6F3100440B088B0
:101BD00031890843718908430443AC81AC8A4FF6CC
:101BE000FF400440B0890443AC8201A8FFF73EFCEB
:101BF0001F48874202D1DDF810A001E0DDF80CA0FB
:101C0000A88900F4004040B10AEBCA0000EB0A10BA
:101C100031684900B0FBF1F807E00AEBCA0000EBBD
:101C20000A1031688900B0FBF1F86420B8FBF0F0CD
:101C300004012009642101FB1089A88900F40040F7
:101C400040B1322000EBC900B0FBF1F000F007001A
:101C5000044308E0322000EB09106421B0FBF1F0EE
:101C600000F00F0004432C8106B0BDE8F0870000AF
:101C70000038014001468888C0F30800704700BF63
:101C8000FEE730380A2801D2012070470020704753
:101C900000BF704770B50D4C0D4A0C210D4803F084
:101CA000D1FC0D4802F0BEFBC5B2012D0CD1D4E928
:101CB0000012091F501802220849FEF764FC08B9F7
:101CC000012070BD0220FCE70020FAE764410020FB
:101CD00001250008E9710008C05102009B7200084C
:101CE00070B5204C204A0A21204803F0ABFC40F696
:101CF000B83002F097FBC5B2012D31D1D4E9001202
:101D0000091F501802221A49FEF73DFC40BB6168CA
:101D100001F10E000C221749FEF735FC20B9012015
:101D2000154981F8DC0070BD616801F10E000A22DE
:101D30001249FEF728FC28B902200F4981F8DC007F
:101D40000120F0E7616801F10E0006220C49FEF760
:101D50001AFC28B90320084981F8DC000120E2E7D9
:101D60000020E0E764410020012500089E72000881
:101D70009B720008A9720008D8410020B6720008C2
:101D8000C172000870B5224C224A0B21224803F090
:101D900059FC43F6982002F045FBC5B2012D35D120
:101DA000D4E90012091F501802221C49FEF7EBFB70
:101DB00050BB0C210B46491C6668F05C184B83F83D
:101DC0008600491C0B46491C6668F05C144B83F87E
:101DD0004100491C002208E06068435C10487030F4
:101DE0008354481CC1B2501CC2B26068405C2C28AD
:101DF00001D0142AF0DB0A4890F88600312801D17E
:101E0000032070BD0120FCE70220FAE70020F8E77C
:101E10006441002001250008F67100089B7200084B
:101E2000D841002070B50C4C0C4A08210C4803F036
:101E300009FC4FF4A07002F0F5FAC5B2012D08D1EB
:101E40006168881C04220749FEF79DFB08B1012048
:101E500070BD0020FCE7000064410020012500085F
:101E6000C8720008D172000870B5104C104A0A21DF
:101E7000104803F0E7FB41F2883002F0D3FAC5B214
:101E8000012D11D16168881C0C220B49FEF77BFBE8
:101E900008B9012070BD6168881C0E220749FEF751
:101EA00072FB08B90220F5E70020F3E76441002047
:101EB000012500083C7100085671000847710008B0
:101EC00070B5724C724A1021724803F0BBFB43F6A6
:101ED000982002F0A7FAC5B2012D78D1D4E90012FA
:101EE000091F501802226C49FEF74DFB00286FD1E4
:101EF000206806286DD90C21002207E06068435C49
:101F000066488354481CC1B2501CC2B26068405C31
:101F10002C2801D0022AF1DB481CC1B2002208E0C3
:101F20006068435C5D4817308354481CC1B2501C44
:101F3000C2B26068405C2C2801D00A2AF0DB481C41
:101F4000C1B2002208E06068435C5448C01C83545E
:101F5000481CC1B2501CC2B26068405C2C2801D041
:101F6000142AF0DB481CC1B2002208E06068435C20
:101F70004A4821308354481CC1B2501CC2B2606828
:101F8000405C2C2801D0052AF0DB481CC1B200229D
:101F900008E06068435C414826308354481CC1B265
:101FA000501CC2B26068405C2C2801D0052AF0DBCE
:101FB000481CC1B208464B1CD9B26668305C374B2E
:101FC000843B83F8B900481CC1B200220BE05AE000
:101FD00057E054E06068435C304845388354481CFF
:101FE000C1B2501CC2B26068405C2C2801D0022AE9
:101FF000F0DB481CC1B208464B1CD9B26668305CA5
:10200000264B843B83F8BA00481CC1B208464B1CDF
:10201000D9B26668305C214B843B83F8BB00481C16
:10202000C1B2002208E06068435C1C483830835429
:10203000481CC1B2501CC2B26068405C2C2801D060
:102040000A2AF0DB1548843890F8B900342801D109
:10205000042070BD1148843890F8B90031280BD0A5
:102060000E48843890F8B900322805D00B488438DF
:1020700090F8B900332801D10320EAE700BF01201E
:10208000E7E70220E5E70020E3E7000064410020E5
:1020900001250008487200089B7200085C4200207D
:1020A00070B50D4C0D4A06210D4803F0CBFA4FF4E4
:1020B000967002F0B7F9C5B2012D0AD1D4E9001229
:1020C000091F501802220749FEF75DFA08B90120DE
:1020D00070BD0020FCE700006441002001250008DD
:1020E000237100089B72000870B50D4C0D4A0E213B
:1020F0000D4803F0A7FA42F6F82002F093F9C5B2B2
:10210000012D0AD16168881C02220849FEF73BFABA
:1021100008B9012070BD0220FCE70020FAE70000AA
:102120006441002001250008397200089B720008F4
:10213000F0B59DB0334E002404E0002004A90855FA
:10214000601CC4B2642CF8DB002404E0002002A967
:102150000855601CC4B2062CF8DB2B48028A2BA160
:1021600002A8FEF7A1F82A4904A8FEF7E8F92649D3
:10217000153104A8FEF73FFA264904A8FEF73BFAFA
:1021800002A904A8FEF737FA234904A8FEF733FA98
:1021900004A8FEF711FA0746204A394604A803F0BE
:1021A00051FA1F4802F03EF9C5B2012D27D17168DE
:1021B000881C02221B49FEF7E6F9F0B940F6B83157
:1021C00001A801F08FF8C5B2012D14D10199496819
:1021D000881C08221449FEF7D6F950B9019803C8A3
:1021E000C01E085C302802D101201DB0F0BD0220C5
:1021F000FBE70320F9E70420F7E70520F5E70020D7
:10220000F3E70000644100207C41002025750000B8
:1022100011720008277200082A72000801250008C0
:10222000A85502009B720008DD72000870B50E4CC4
:102230000E4A0E210E4803F005FA4AF2280002F079
:10224000F1F8C5B2012D0CD1D4E90012091F5018C4
:1022500002220849FEF797F908B9012070BD022053
:10226000FCE70020FAE70000644100200125000897
:10227000027200089B72000870B52F4C2F4A0B2188
:102280002F4803F0DFF94FF4967002F0CBF8C5B297
:10229000012D4FD1D4E90012091F501802222949FB
:1022A000FEF771F9002843D10A210B46491C6668E4
:1022B000F05C254B83F83200491C0B46491C6668CC
:1022C000F05C214B83F83300184690F83200302838
:1022D0002CD0481CC1B2002208E06068435C1A4858
:1022E00034308354481CC1B2501CC2B26068405C98
:1022F0002C2801D0052AF0DB481CC1B2002208E0DE
:102300006068435C104839308354481CC1B2501C8B
:10231000C2B26068405C2C2801D0052AF0DB481C62
:10232000C1B26068405C084B83F83E00012070BD7C
:102330000220FCE70020FAE76441002001250008A4
:102340006E7100089B720008D841002010B5012072
:10235000054908604FF4967003F0C6FC002003495D
:10236000C1F8B00110BD0000B081214200802142BF
:1023700010B50120074908604FF4FA7003F0B4FC6F
:1023800000200549C1F8B40140F6B83003F0ACFCB8
:1023900010BD0000B48121420080214270B51C4C68
:1023A0001C4890F8DC00012805D11B4A1F211B485E
:1023B00003F048F917E0174890F8DC00022805D12F
:1023C000154A2021164803F03DF90CE0114890F819
:1023D000DC00032805D1104A1F21124803F032F90E
:1023E00001E0002070BD4FF4967002F01BF8C5B2FA
:1023F000012D0AD1D4E90012091F501802220A49FE
:10240000FEF7C1F808B90120ECE70020EAE7000078
:1024100064410020D8410020012500087A7100089D
:102420009A710008BB7100089B72000870B52F4CB0
:102430002F4A0A212F4803F005F94FF4967001F056
:10244000F1FFC5B2012D4FD1D4E90012091F501878
:1024500002222949FEF797F8002843D109210B46AB
:10246000491C6668F05C254B83F83200491C0B461A
:10247000491C6668F05C214B83F83300184690F8DD
:10248000320030282CD0481CC1B2002208E060681D
:10249000435C1A4834308354481CC1B2501CC2B249
:1024A0006068405C2C2801D0142AF0DB481CC1B2C3
:1024B000002208E06068435C104839308354481CAF
:1024C000C1B2501CC2B26068405C2C2801D0142AF2
:1024D000F0DB481CC1B26068405C084B83F83E00EA
:1024E000012070BD0220FCE70020FAE764410020D3
:1024F00001250008637100089B720008D841002084
:1025000070B504460025206898B1606800780D28F1
:102510000FD1606840780A280BD1084BD4E900211C
:102520005868FEF774F805492068086001F086FFD6
:102530000125204600F0E6FF284670BD64410020DA
:1025400070B504460025206828B3606800780D281F
:1025500021D1606840780A281DD16168881C062254
:102560000E49FEF710F828B9204602F079F890B12C
:10257000012510E00A4BD4E900215868FEF747F81E
:10258000074920680860084602F042F818B1204662
:1025900000F0B8FF0125284670BD0000D672000883
:1025A0007041002010B50420FFF73EF81048006885
:1025B0001049B0FBF1F0104908700D4800680D4952
:1025C000B0FBF1F44FF47A70444301200B490880CA
:1025D0004FF0E020006940F002004FF0E021086178
:1025E00008464461006940F00100086110BD000028
:1025F0001400002040420F00D4000020D60000202C
:1026000000B58BB001210846FEF7E0FE1548FEF745
:10261000EDFB1548009015480190002002906420C1
:1026200003900020049080200590002006900790E1
:1026300008904FF40050099000200A90694609481C
:10264000FEF79DFC4FF48070FEF7A8FB01224021AD
:102650000548001FFFF7FAF901210248FEF7BAFB0F
:102660000BB000BD30000240044800403C40002058
:1026700000B58BB001210846FEF7A8FE1648FEF70C
:10268000B5FB164800901648406801900020029063
:1026900014480068039000200490802005900020DA
:1026A0000690079008904FF40050099000200A907F
:1026B00069460948FEF763FC4FF48050FEF76EFB55
:1026C000012240210548001FFFF7C0F901210248FF
:1026D000FEF780FB0BB000BD5800024004380140FB
:1026E000A44000207C41002000B58BB001210846A9
:1026F000FEF76CFE1648FEF779FB16480090164868
:102700004068019000200290144800680390002067
:1027100004908020059000200690079008904FF4C8
:102720000050099000200A9069460948FEF727FCEE
:102730004FF48010FEF732FB012240210548001FB4
:10274000FFF784F901210248FEF744FB0BB000BDFE
:102750006C00024004440040044100207C41002001
:1027600000B58BB001210846FEF730FE1B48FEF78E
:102770003DFB1B4800901B4800680190002003901F
:1027800010200290002004908020059000200690E8
:10279000079008904FF44050099000200A90694635
:1027A0000E48FEF7ECFB1020FEF7F8FA012280211C
:1027B0000B48001FFFF74AF900210848FEF70AFB03
:1027C0001020FEF7EBFA4020FEF7E8FA2020FEF793
:1027D000E5FA8020FEF7E2FA0BB000BD1C000240D3
:1027E00004480040B000002000B58BB0012108462D
:1027F000FEF7ECFD1E48FEF7F9FA1E4800901E4851
:102800000068406801900020039010200290002092
:1028100004908020059000200690079008904FF4C7
:102820004050099000200A9069461148FEF7A7FB26
:102830004FF48050FEF7B2FA012280210D48001FAC
:10284000FFF704F900210A48FEF7C4FA4FF480505C
:10285000FEF7A4FA4FF48040FEF7A0FA4FF40050C0
:10286000FEF79CFA4FF40040FEF798FA0BB000BD5B
:102870004400024004380140BC00002000B58DB087
:1028800001210846FEF7A2FD3048FEF7AFFA3048B6
:1028900002903048006840680390002005901020A6
:1028A0000490002006908020079000200890099056
:1028B0000A904FF440500B9000200C9002A923483E
:1028C000FEF75DFB4FF08070FEF768FA01220221EF
:1028D0001E48FEF74BFB012280211D48001FFFF719
:1028E000B5F800211948FEF775FA11208DF804009B
:1028F00007208DF8050000208DF8060001208DF8D6
:10290000070001A8FEF720FD4FF08070FEF746FAA1
:102910004FF08060FEF742FA4FF00070FEF73EFA8B
:102920004FF00060FEF73AFA4FF08070FEF744FA7D
:102930004FF00070FEF740FA4FF00060FEF73CFAEF
:102940004FF08060FEF738FA0DB000BD8000024005
:1029500004440040C80000202DE9F04107463E46EF
:102960002EB940F2FB4216A11AA0FDF791FC1D48BA
:102970000068864201D100241EE003F041F8756929
:1029800003F082F818480068854203D017480068B1
:10299000854201D102240FE01548854205D1B06A75
:1029A00008B9032408E0022406E01248854200D05A
:1029B0000DB9042400E001242046BDE8F0810000A8
:1029C0002E2E5C4672656552544F535C7461736B76
:1029D000732E63004572726F723A25732C25640D55
:1029E0000A00000060000020640000206800002051
:1029F00000400020EC3F002008B50020FB4981F892
:102A0000D00004F0CFF8F949C1F8D4000020C1F893
:102A1000D80037E3F54890F8D000172813D2DFE844
:102A200000F00C4390B2EFEEEDECEBEAE9E8E7E6FC
:102A3000E51226131212D56FE400FFF787FC102071
:102A4000EA4981F8D0001CE3FFF792FC1020E74927
:102A500081F8D00004F0A6F8E449C1F8D4000020C1
:102A6000C1F8D80004F09EF8E149486009E3FFF797
:102A700017FB38B104F096F8DC49C1F8D400012006
:102A800081F8D00004F08EF8D849D1F8D410401A5B
:102A900047F23051884206D91120D44981F8D0003C
:102AA000D4A0FDF7F5FBECE2FFF7DEF90446012CBC
:102AB00009D11520CD4981F8D00004F073F8CB4935
:102AC000C1F8D4001BE0022C08D1CEA0FDF7E0FB3A
:102AD00004F068F8C549C1F8D40010E004F062F8C9
:102AE000C249D1F8D410401A44F62061884206D970
:102AF000C7A0FDF7CDFB1120BC4981F8D000C0E292
:102B0000FFF790F90446012C09D10220B74981F85A
:102B1000D00004F047F8B549C1F8D40010E004F043
:102B200041F8B249D1F8D410401A44F620618842E5
:102B300006D9BDA0FDF7ACFB1120AC4981F8D0004F
:102B40009FE2FFF773FC0446012C09D10320A7493B
:102B500081F8D00004F026F8A449C1F8D40011E0AF
:102B6000022C0FD104F01EF8A049D1F8D410401A5D
:102B7000B449884206D9B4A0FDF78AFB11209B49CD
:102B800081F8D0007DE2FFF777FB0446012C09D1E4
:102B90001420964981F8D00004F004F89349C1F854
:102BA000D40012E0022C10D103F0FCFF8F49D1F8C1
:102BB000D410401A4EF66021884206D9A9A0FDF72C
:102BC00067FB1120894981F8D0005AE2FFF788F8A5
:102BD0000446012C15D10420844981F8D00003F06B
:102BE000E1FF8249C1F8D4001CE019E248E246E264
:102BF00041E2E8E0E7E1A9E08CE05FE035E033E0C6
:102C000011E003F0CFFF7949D1F8D410401A4EF605
:102C10006021884206D99AA0FDF73AFB112073493A
:102C200081F8D0002DE2FFF7B9FB0446012C09D151
:102C300006206E4981F8D00003F0B4FF6B49C1F85B
:102C4000D40010E003F0AEFF6849D1F8D410401A68
:102C50004EF66021884206D98FA0FDF719FB11209E
:102C6000624981F8D0000CE20BE2FFF713F804464A
:102C7000012C0CD109205D4981F8D00003F092FFAE
:102C80005A49C1F8D4000020C1F8D80015E0022C40
:102C90000CD185A0FDF7FCFA0720544981F8D0003B
:102CA00003F080FF5149C1F8D40006E086A0FDF78B
:102CB000EFFA11204D4981F8D000E2E1FFF7B6FAB2
:102CC0000446012C0BD1494981F8D0000020C1F8FD
:102CD000D80003F067FF4549C1F8D40019E0022C81
:102CE00010D14249D1F8D800411C404AC2F8D8104E
:102CF00003280ED97CA0FDF7CBFA11203B4981F8BF
:102D0000D00006E07EA0FDF7C3FA1120374981F814
:102D1000D000B6E1FFF736F80446012C09D10620B1
:102D2000324981F8D00003F03DFF3049C1F8D400AA
:102D30000BE0032C04D10B202C4981F8D00004E0D7
:102D4000022C02D174A0FDF7A3FA9AE1FFF7F0F983
:102D50000446012C10D11620244981F8D00001200E
:102D60002349087500202149C1F8D80003F01AFF53
:102D70001E49C1F8D40025E0ECB1012C1BD01B4941
:102D8000D1F8D800411C194AC2F8D810052819D921
:102D9000224666A16846FDF787FA65A0FDF778FA36
:102DA0006846FDF775FA25A0FDF772FA11200F4964
:102DB00081F8D00006E062A0FDF76AFA11200B4905
:102DC00081F8D0005DE1FFF77BF80446012C0CD1BF
:102DD0000920064981F8D00003F0E4FE0349C1F858
:102DE000D4000020C1F8D800ECE0B5E0D8410020C4
:102DF0007C41002045433230207265626F6F740D54
:102E00000A0D0A006E6F2073696D0D0A0000000044
:102E1000636865636B2073696D2074696D656F7598
:102E2000740D0A0D0A000000636865636B20736906
:102E3000676E616C2074696D656F75740D0A0D0A9B
:102E400000000000905F0100636865636B20736998
:102E50006D207265672074696D656F75740D0A0D5C
:102E60000A000000636865636B206E6574207265FC
:102E7000672074696D656F75740D0A0D0A00000096
:102E80004F7065726174657220636865636B20655D
:102E900072720D0A0D0A00007365742061706E2055
:102EA0006572720D0A0D0A006163746976652050BF
:102EB000445020436F6E74657874206572722031BF
:102EC0000D0A0D0A000000006163746976652050E8
:102ED000445020436F6E746578742065727220329E
:102EE0000D0A0D0A000000006C696E6B20706F699E
:102EF0006E742065727220310D0A0D0A0000000008
:102F00006C696E6B20706F696E742065727220320E
:102F10000D0A0D0A00000000636F6E74657874205E
:102F200065727220310D0A0D0A000000257500003F
:102F3000637265617420746370206572723A000078
:102F40006372656174207463702074696D6F757449
:102F50000D0A0D0A00000000032C20D103F022FE10
:102F600049494968401A4849896888420DD903F09F
:102F700019FE454948600A20444981F8D00003F011
:102F800011FE4249C1F8D4001CE016203F4981F8E7
:102F9000D00003F007FE3D49C1F8D40012E0042C34
:102FA00009D10A20394981F8D00003F0FBFD3749E7
:102FB000C1F8D40006E036A0FDF76AF911203349C4
:102FC00081F8D0005DE0FFF78FF80446012C0CD1AA
:102FD00009202E4981F8D00003F0E4FD2B49C1F807
:102FE000D4000020C1F8D80019E0022C10D12749E4
:102FF000D1F8D800411C254AC2F8D81005280ED9AE
:1030000028A0FDF745F91120204981F8D00006E0FD
:1030100029A0FDF73DF911201C4981F8D00030E0CE
:1030200042F21071684600F06BF9C5B2012D06D16D
:10303000009801F061FA26A0FDF72AF91AE012487B
:10304000007D022807D127A0FDF722F911200F49A2
:1030500081F8D0000EE00C48007D58B926A0FDF79D
:1030600017F90A20094981F8D00003F09BFD0749B0
:10307000C1F8D40005E027A0FDF70AF901E000E05F
:1030800000BF00BFC6E400007C410020D841002002
:1030900063686B207463702074696D656F75740D5F
:1030A0000A0D0A00636C6F7365207463702065728B
:1030B000720D0A0D0A000000636C6F736520746363
:1030C000702074696D656F75740D0A0D0A0000003B
:1030D00073656E6420746F20757365720D0A0D0A36
:1030E00000000000646972656374207265626F6F2E
:1030F000740D0A0D0A0000007472616E73666572C9
:1031000020746F20636C6F7365207463700D0A0DFB
:103110000A00000069646C65200D0A0D0A000000B9
:1031200010B5002200210AE001EB4100154B03EB32
:103130008000007A08B9012207E0481CC1B2124899
:1031400090F85900401E8842EEDC00BF012A02D1EF
:103150000D4881740DE00C4890F85900401E0A4B50
:10316000987400209B7C03EB4303064C04EB830321
:1031700018720548807C00EB4000024B03EB800096
:1031800010BD0000A44000207C41002010B5044682
:10319000FFF732FC10BD000000BF054A128802F0A4
:1031A0004002002AF9D0C2B2014B1B1D1A807047A1
:1031B0000048004001460748028802EB1220C3B2D3
:1031C0000448801C0088984202D10A800120704780
:1031D0000020FCE700FC000810B502460948016821
:1031E000080C00EB116000EB11200844C3B2054845
:1031F000001D0088984202D11160012010BD0020FE
:10320000FCE7000000EC000802460748018801F1D5
:10321000FF0000EA212304484088984202D111802F
:10322000012070470020FCE700F00008F0B593B0E3
:10323000064601AF002408E0134901EB8400D0F8F2
:10324000000847F82400601CC4B2112CF4DB0024F1
:10325000002505E001A8005D2844C5B2601CC4B289
:10326000442C03DA01A8005D0028F3D10748008848
:10327000A84206D101A93046FDF761F9012013B03B
:10328000F0BD0020FBE7000000F0000844F8000853
:1032900001460748028802EB1220C3B20448801C92
:1032A0000088984202D10A80012070470020FCE784
:1032B00000F4000810B5024609480168080C00EB4C
:1032C000116000EB11200844C3B20548001D0088BE
:1032D000984202D11160012010BD0020FCE70000DF
:1032E00000E8000870B504460D4600232A46214632
:1032F0000248006803F0A2F870BD0000DC00002066
:1033000070B504460D4600232A462146024800684F
:1033100003F094F870BD0000D800002070B504469A
:103320000D4600232A4621460248006803F086F82D
:1033300070BD0000E400002070B504460D46002377
:103340002A4621460248006803F078F870BD000064
:10335000E000002000B595B014A8FFF72BFFBDF8E2
:1033600050004AF6A121884247D102A8FFF75EFF2C
:1033700020B102A93448FDF7E2F803E033A1324856
:10338000FDF7DDF814A8FFF783FF28B1BDF8500062
:103390002D491539088204E041F641702A49153952
:1033A000088214A8FFF730FF28B1BDF85000264965
:1033B0001539086004E04FF480702349153908601E
:1033C00001A8FFF709FF20B11F491539019888604E
:1033D00004E04FF0FF301C491539886001A8FFF761
:1033E00069FF20B1184915390198C86004E04FF40D
:1033F000E13015491539C86013E000F0F1FF13A161
:103400001148FDF79CF841F641700F4915390882C3
:103410004FF4807008604FF0FF3088604FF4E13067
:10342000C8600020084915398874C8744860087558
:10343000084600684FF40061B1FBF0F0024915390D
:1034400081F8590015B000BD914100203132312E74
:1034500034312E33302E34320000000008B5012103
:103460001C20FDF7E3FF4FF44040ADF800001020B2
:103470008DF8030003208DF8020069460F48FDF720
:10348000D0FEBDF800100D48FDF756FF01210820C1
:10349000FDF7CCFF4FF44050ADF8000010208DF840
:1034A000030003208DF8020069460548FDF7B9FEC8
:1034B000BDF800100248FDF73FFF08BD00100140B5
:1034C000000C01401CB5FDF7A0FE4FF44070FDF765
:1034D00073FF0748012100234022CDE9001005A118
:1034E000074803F01FFB02F047FE00201CBD000050
:1034F0000000002073746172745F7461736B00006C
:103500007D5200080146087A012803D10020087284
:10351000012070470020FCE710B500F00DF800F026
:1035200033FF00F021FF00F04BFF00F03DFF00F003
:103530008FFF00F099FF10BD10B5002428E01D4951
:10354000086800F013FE04EB44011B4A02EB810102
:103550004860002004EB440142F8210004EB4401E0
:1035600002EB810108721349086800F0FFFD04EBCB
:103570004401124A02EB81014860002004EB44013F
:1035800042F8210004EB440102EB81010872641C43
:10359000084890F85900A042D1D80649086800F0C0
:1035A000E5FD074948600349086800F0DFFD05496B
:1035B000486010BD7C410020A44000200441002050
:1035C00064410020704100202DE9F04105460E467F
:1035D0001C4807681C480068001D02F06FF950B9CC
:1035E0001948006890F82C10012088401749096894
:1035F000814316480160681C38B936B11248016829
:10360000091D134802F0F0F91AE07C190E48006811
:103610004460BC4207D20C480168091D0D4800688F
:1036200002F0C8F90CE008480168091D0A48006862
:1036300002F0C0F909480068844201D207480460DA
:10364000BDE8F081740000206000002078000020B8
:10365000004000206800002064000020900000204E
:1036600010B5044602F0CCF924480068401C2349F8
:1036700008602348006840B9214804600846006893
:1036800001280DD100F0EEF90AE01E48006838B9B3
:103690001B480068C06AE16A884201D81848046083
:1036A00019480068401C18490860084600686064B2
:1036B00094F82C10012088401449096808431349E4
:1036C0000860E16A01EB8101114A02EB8100211DD2
:1036D00002F08AF902F0D8F90A48006868B108488F
:1036E0000068C06AE16A884207D24FF080500949F9
:1036F0000860BFF34F8FBFF36F8F10BD70000020C5
:10370000600000207C0000208C0000207800002059
:10371000303D002004ED00E010B502F071F91048D2
:103720000068D0B90F4802F035F90F4802F032F9BD
:103730000C480E4908600C480D4908600022102111
:10374000052002F041FE064908600846006820B1E5
:1037500008A10348006802F08BFA02F095F910BD49
:10376000A400002014400020284000209C000020DD
:10377000A0000020546D72510000000070B523E0DD
:1037800002F050FD1348006808B9012000E0002055
:10379000054603F083FBBDB902F032F90D48C0685D
:1037A000C468201D02F08AF80B480068401E0A49D0
:1037B00008600A480068401E0849086002F064F981
:1037C000204600F060F800BF044800680028D7D108
:1037D00070BD0000EC3F0020700000206C00002055
:1037E00070B504460D46206C70B1216CE068084449
:1037F000E0606168E068884201D32068E0602846A4
:10380000226CE168FCF703FF70BD2DE9F04104462E
:103810000F4615464FF00008A66B206C40B9206893
:1038200060BB606803F074FA80460020606025E0A9
:103830007DB93946226CA068FCF7E9FE216CA068CE
:103840000844A060D4E90110884217D32068A06022
:1038500014E03946226CE068FCF7D9FE216CE06880
:10386000401AE0602168E068884203D2216C6068F9
:10387000401AE060022D01D106B1761E701CA063D3
:103880004046BDE8F08110B50446206B02F034F9E3
:10389000204602F031F910BD0146084A126812684C
:1038A0000AB9012200E000220A600A6822B9034A2C
:1038B0001268D268106800E0002070479C00002069
:1038C00030B54FF47053174800F007042CB1C01DF9
:1038D00020F00700134C041B1B1B0246124C2260F5
:1038E0000024114D6C60D018083820F007000F4CF0
:1038F000206000240D4D2D686C600C4D2D682C60EF
:103900001146441A4C60094C24680C60084D4C6800
:103910002C60084D4C682C604FF00044064D2C6024
:1039200030BD0000F00000203C00002044000020DA
:103930004C000020480000205000002000BFFFF78E
:103940001DFF064800680128F9D94FF0805004494E
:103950000860BFF34F8FBFF36F8FF0E7303D00205B
:1039600004ED00E02DE9F04106460D461746984665
:10397000069C0DB9246000E02760E6632564012100
:10398000204602F03FFE84F850800020A064BDE88D
:10399000F08100002DE9F05F82460F4690469B467D
:1039A0000A9E0C9C4FEA8801A522206BFCF774FE4E
:1039B000A8F10100216B01EB800929F0070909F04A
:1039C000070008B9012000E0002028B940F22B329E
:1039D0001BA120A0FCF75CFC002507E0795D04F149
:1039E00034004155785D00B902E06D1C102DF5D30F
:1039F00000BF002143200155202E00D31F26E66280
:103A0000E66400202065201D01F0D1FF04F11800BC
:103A100001F0CDFF2461C6F12000A06164620020A6
:103A2000606584F858005A465146484600F058FCF4
:103A300020600B9808B10B980460BDE8F09F00006F
:103A40002E2E5C4672656552544F535C7461736BE5
:103A5000732E63004572726F723A25732C25640DC4
:103A60000A00000010B5002407E004EB84010F4AAF
:103A700002EB810001F08EFF641C202CF5D30C4872
:103A800001F088FF0B4801F085FF0B4801F082FF31
:103A90000A4801F07FFF0A4801F07CFF0448094909
:103AA000086004480849086010BD0000303D00204F
:103AB000B03F0020C43F0020D83F0020EC3F002052
:103AC00000400020640000206800002010B501467E
:103AD000164800E0006803688B42FBD30246436847
:103AE00013448B4204D143684C682344436001462D
:103AF0000A464B6813440468A34211D10C4C036876
:103B00002468A34208D04B680468646823444B606F
:103B100003681B680B6005E0054B1B680B6001E048
:103B200003680B60884200D0016010BD3C0000209B
:103B3000440000202DE9F04104460D4616461F467C
:103B40004FF0000865602461B5420CD8F01BA169F4
:103B5000884202D34FF0010811E0211D0948006896
:103B600001F028FF0BE0BE4204D2BD4202D34FF069
:103B7000010804E0211D0448006801F01BFF4046D5
:103B8000BDE8F081A00000209C00002070B5054633
:103B900001F036FFA86B08B9012400E0002401F011
:103BA00073FF204670BD70B5054601F029FFA86B74
:103BB000E96B884201D1012400E0002401F064FF98
:103BC000204670BD2DE9F04707460C46904600267A
:103BD000206848B3204641684968416000F1080107
:103BE00042688A4202D14168496841604168D1F81F
:103BF0000C9000BF204641684968416000F108010F
:103C000042688A4202D14168496841604168CD6892
:103C100006EBC60007EB800143460122284602F06E
:103C200023F9761C4D45E5D13046BDE8F08700000C
:103C30002DE9F3410D460098846C00272CB940F61D
:103C4000CE121AA11EA0FCF723FBA06BE16B8842E9
:103C500001D2012000E0002028B940F6CF1213A1C4
:103C600017A0FCF715FBA06BE16B88421BD294F9FF
:103C700045602A4669462046FFF7C7FD0746701C87
:103C800060B9606A08B9012000E0002050B904F171
:103C9000240003F0A9F828B1012703E0701C40B20A
:103CA00084F8450000BF3846BDE8FC812E2E5C46F6
:103CB00072656552544F535C71756575652E63006E
:103CC0004572726F723A25732C25640D0A0000004C
:103CD000F8B505460F4613480068C068C468201D43
:103CE00001F0ECFDE069012818D1A06941192B46CB
:103CF0003A462046FFF71EFF80B1002003462A46C1
:103D000001460090204603F093F906462EB94FF481
:103D1000027205A10AA0FCF7BBFA00BF2046616A47
:103D20008847F8BD9C0000202E2E5C4672656552C7
:103D3000544F535C74696D6572732E63000000000C
:103D40004572726F723A25732C25640D0A000000CB
:103D5000F0B587B070E0039800280CDA04AE2EB9F5
:103D600040F2E7223AA140A0FCF792FAD6E90020FF
:103D7000B168904700BF039800285DDB059C60692F
:103D800008B9012000E0002010B9201D01F096FDC7
:103D900002A800F0C7F8054603980A284AD2DFE8CF
:103DA00000F00905072C2E4506082D2F00BF00BF87
:103DB00000BF00BF0498A269811803462A46204626
:103DC000FFF7B8FEC0B12046616A8847E069012864
:103DD00012D1002000900498A169421800231946CE
:103DE000204603F025F907462FB940F2213218A1E9
:103DF0001DA0FCF74DFA00BF1DE000BF1BE000BF97
:103E00000498A061A06908B1012000E0002028B951
:103E10004FF44E720EA114A0FCF73AFAA0694119B2
:103E20002B462A462046FFF785FE04E0204601F097
:103E300063FE00E000BF00BF00231A4603A90E483E
:103E4000006802F0FBFA002885D107B0F0BD000041
:103E50002E2E5C4672656552544F535C74696D65D5
:103E600072732E63000000004572726F723A257300
:103E70002C25640D0A000000A4000020F8B50546BA
:103E80000C4602F0CFF9684600F04CF80646009860
:103E900020BB44B9B54206D803F000F831462846A5
:103EA000FFF716FF1CE03CB10E480068006808B937
:103EB000012000E000200446A91B22460A480068B1
:103EC00001F0ECFE02F0EAFF50B94FF080500749D4
:103ED0000860BFF34F8FBFF36F8F01E002F0DEFF8A
:103EE000F8BD0000A0000020A400002004ED00E0C8
:103EF0000A490968096809B9012100E0002121B1D6
:103F00004FF0FF31064A116006E004490968C968AC
:103F1000C868034A416811607047000064000020CF
:103F20009000002070B5044602F03CFE05460748AC
:103F30000068854204D200F00BF80120206001E007
:103F40000020206001480560284670BDAC000020BC
:103F50002DE9F8432DE021480068C06805681F4836
:103F60000068C068C468201D01F0A8FC2046616A92
:103F70008847E06901281CD1A0694619AE4207D9DB
:103F800066602461211D1548006801F013FD10E0F2
:103F9000002003462A4601460090204603F048F8D8
:103FA00007462FB940F292320DA113A0FCF770F929
:103FB00000BF0A480068006808B9012000E000203E
:103FC0000028C8D00548D0F800800F480068034991
:103FD00008600D48C0F80080BDE8F8839C00002010
:103FE0002E2E5C4672656552544F535C74696D6544
:103FF00072732E63000000004572726F723A25736F
:104000002C25640D0A000000A000002002460021BB
:1040100001E0521C491C1078A528FAD0890888B202
:10402000704700000B480068401C08B9012000E000
:10403000002020B9F42208A112A0FCF729F900BF42
:10404000502080F31188BFF34F8FBFF36F8F00BFF5
:1040500000BFFEE7540000202E2E5C4672656552BC
:10406000544F535C706F727461626C655C5256445D
:10407000535C41524D5F434D335C706F72742E63DD
:10408000000000004572726F723A25732C25640D92
:104090000A00000008B500BF6846FFF7FDFB0446B4
:1040A00020460099FFF7EAFEFFF752FEF4E770B5ED
:1040B000044601F0A5FC94F945501AE0A06C38B113
:1040C00000212046FFF7B4FD88B101F079FF0EE032
:1040D000606A08B9012000E0002038B904F124002A
:1040E00002F082FE18B101F06BFF00E003E0681EF1
:1040F00045B2002DE2DC00BFFF2084F8450001F04E
:10410000C3FC01F07DFC94F9445010E0206908B92B
:10411000012000E0002048B904F1100002F064FE24
:1041200008B101F04DFF681E45B200E001E0002D2E
:10413000ECDC00BFFF2084F8440001F0A5FC70BD5A
:1041400070B505460E4631462846FCF7F8F9284674
:10415000FCF732FA044602E020202855641C0F2C9C
:10416000FAD300202855281970BD00002DE9F04130
:1041700004464FF0000802F055F83E48006808B9C0
:10418000FFF79EFB3C480068204000285FD1A4B1A7
:10419000083404F0070080B104F00700C0F1080003
:1041A000044404F0070008B9012000E0002020B911
:1041B000BF2232A13BA0FCF76BF8002C47D03D4852
:1041C0000068844243D83C4E3046056801E02E46E4
:1041D0002D686868A04202D228680028F7D12548D7
:1041E0000068854233D0306800F1080828683060E4
:1041F0006868001B102813D92F1907F0070008B9A9
:10420000012000E0002020B9EC221CA125A0FCF731
:104210003FF86868001B78606C603846FFF756FC12
:10422000244968680968081A224908600846006835
:1042300022490968884203D21E4800681F49086065
:104240000D4968680968084368600020286002F02A
:1042500025FE08F0070008B9012000E0002028B979
:104260004FF4967205A10FA0FCF712F84046BDE886
:10427000F081000044000020500000202E2E5C46FB
:1042800072656552544F535C706F727461626C65F5
:104290005C4D656D4D616E675C686561705F342E65
:1042A000630000004572726F723A25732C25640D0D
:1042B0000A000000480000203C0000204C000020C4
:1042C0000648006830B10549096801F15000096DE0
:1042D000491C016001480068704700006000002030
:1042E000001F4FF080730360001F21F00103036083
:1042F000001F034B03601438026020387047000031
:104300002540000870B50646114C124A0F2112488C
:1043100001F098F9114800F085F8C5B2012D15D1CA
:104320006168881C08220E49FCF72DF960B9D4E9B0
:104330000012091F501802220A49FCF724F908B993
:10434000012070BD0220FCE70220FAE70020F8E718
:104350006441002001250008FD720008905F010003
:104360000D7300089B72000810B5054991F85900BB
:1043700000220C2102F028F80249086010BD00005C
:104380007C410020DC00002010B5054991F859005F
:1043900000220C2102F018F80249086010BD00004C
:1043A0007C410020D800002010B500220C21012003
:1043B00002F00AF80149086010BD0000E400002086
:1043C00010B5054991F8590000220C2101F0FCFFBD
:1043D0000249086010BD00007C410020E000002080
:1043E00010B50CA000F0EEFD41F6417000F07CFE2F
:1043F0004FF4807000F08AFA4FF0FF3000F028FA96
:104400004FF4E13000F0CEFE4AF6A12000F0CCF9E6
:1044100010BD00003132312E34312E33302E343283
:104420000000000010B50446002322461946024849
:10443000006802F003F810BDE800002008B56946E6
:104440000248006802F0A0FA08BD0000E800002061
:1044500010B503220021012001F0B6FF01490860D8
:1044600010BD0000E800002010B50322002101204B
:1044700001F0AAFF0149086010BD0000EC00002017
:1044800070B58AB00446164D224616A108A8FBF75F
:104490000BFF15496846FCF752F808A96846FCF777
:1044A000AAF812A16846FCF7A6F8114A1D21684631
:1044B00001F0C8F84FF49670FFF7B4FFC6B2012EB2
:1044C0000BD16968881C01220A49FCF75CF810B915
:1044D00001200AB070BD0220FBE70020F9E70000D0
:1044E0006441002025750000E67200080D0A0000F6
:1044F00001250008F37200082DE9F05F05464FF032
:1045000001084FF0000A102401E0601C84B26868C2
:10451000005D2C28F9D1601C84B200BF2046611CCC
:104520008CB26A6812F800B0601C84B2264609E0BA
:10453000B44205D008EB88004FF6FF7101EA40084D
:10454000601C84B26868005D0D28F1D1601C696848
:10455000085C0A28ECD1A01B87B200260FE0E11B03
:1045600031446868405C303800FB08A000F0FF0A66
:104570000A2098FBF0F01FFA80F8701C86B2BE4249
:10458000EDDBA01C84B2696808190B4A514601F0A2
:10459000F1F842F2107001F085F91FFA80F9B9F1D3
:1045A000010F02D005A0FBF773FE2846FEF7AAFF15
:1045B0000120BDE8F09F0000D145000875617274CC
:1045C000322073656E64206572720D0A0D0A000058
:1045D00010B501F05DF9012010BD000038B54FF4B1
:1045E0007A716846FEF77EFEC4B2012C0BD10099A9
:1045F0004968881C07220549FBF7C5FF08B9012057
:1046000038BD0320FCE70020FAE70000F57200083F
:1046100001B582B0029820B9B52208A10BA0FBF722
:1046200037FE029838B1002301AA02A90B4800689E
:1046300002F022F90EBD0020FCE700002E2E5C5394
:10464000595354454D5C6D73672E63004572726F0C
:10465000723A25732C25640D0A000000DC0000204E
:1046600001B582B0029820B9812208A10BA0FBF706
:104670000FFE029838B1002301AA02A90B48006876
:1046800002F0FAF80EBD0020FCE700002E2E5C536D
:10469000595354454D5C6D73672E63004572726FBC
:1046A000723A25732C25640D0A000000D800002002
:1046B00001B582B0029828B940F21D1207A10BA0E3
:1046C000FBF7E6FD029838B1002301AA02A90B48C6
:1046D000006802F0D1F80EBD0020FCE72E2E5C53DE
:1046E000595354454D5C6D73672E63004572726F6C
:1046F000723A25732C25640D0A000000E4000020A6
:1047000001B582B0029820B9E92208A10BA0FBF7FD
:10471000BFFD029838B1002301AA02A90B48006826
:1047200002F0AAF80EBD0020FCE700002E2E5C531C
:10473000595354454D5C6D73672E63004572726F1B
:10474000723A25732C25640D0A000000E000002059
:1047500010B5044694F8640068B194F86400401EF3
:10476000205C242803D12046FFF7A2FF06E004A026
:10477000FBF78EFD02E007A0FBF78AFD10BD0000ED
:10478000636D64207461696C206973206572720DB9
:104790000A0D0A00636D64206C656E206973203019
:1047A0000D0A0D0A000000002DE9F0410546002623
:1047B0000027FCF70BFD3520FCF700FC1C48FCF73C
:1047C00003FC00BF29461A48FCF754FC0446042C9D
:1047D00004D03046711CCEB20328F3DB042C07D082
:1047E00014A0FBF755FDFCF73BFC0020BDE8F08171
:1047F000002605EB1520C7B200BF39460C48801CC7
:10480000FCF738FC0446042C04D03046711CCEB2B0
:104810000328F2DB042C06D006A0FBF739FDFCF7D9
:104820001FFC0020E2E7FCF71BFC0120DEE7000094
:1048300000FC0008666C61736820777269746520FB
:10484000666C617368206572720D0A0D0A000000C3
:104850002DE9F041044642F21070844202D2002059
:10486000BDE8F08100260027FCF7B0FC3520FCF7FE
:10487000A5FB1E48FCF7A8FB00BF21461B48FCF720
:1048800019FC0546042D04D03046711CCEB2032815
:10489000F3DB042D06D016A0FBF7FAFCFCF7E0FBD7
:1048A0000020DDE70026200C00EB146000EB142054
:1048B0002044C7B200BF39460C48001DFCF7DAFBA4
:1048C0000546042D04D03046711CCEB20328F2DB1D
:1048D000042D06D006A0FBF7DBFCFCF7C1FB002093
:1048E000BEE7FCF7BDFB0120BAE7000000EC0008C2
:1048F000666C6173682077726974652074696D6F86
:104900007574206572720D0A0D0A00002DE9F041E0
:104910000446B4F5966F01DC402C02DA0020BDE8B5
:10492000F08100260027FCF751FC3520FCF746FB00
:104930001C48FCF749FB00BF21461A48FCF79AFBCC
:104940000546042D04D03046711CCEB20328F3DB9B
:10495000042D06D014A0FBF79BFCFCF781FB002084
:10496000DDE7002604F1FF0000EA242700BF3946F6
:104970000C48801CFCF77EFB0546042D04D0304615
:10498000711CCEB20328F2DB042D06D006A0FBF783
:104990007FFCFCF765FB0020C1E7FCF761FB012011
:1049A000BDE7000000F00008666C61736820777254
:1049B000697465206C656E206572720D0A0D0A00BF
:1049C000B6B0A0E14FF0FF3135A8FEF7A7FCC5B2A5
:1049D000012DF6D10322CC493598FBF7D4FD0028F0
:1049E0007DD13290339034900522C8493598C01C4F
:1049F000FBF7C9FDC8B9359890F86400A0F1090229
:104A00003599083132A8FBF74FFE32A8FBF78AFD33
:104A10000446204600F0C6FB18B1BDA0FBF738FCE9
:104A200002E0C1A0FBF734FC69E10522C5493598D5
:104A3000C01CFBF7A8FDC8B9359890F86400A0F138
:104A400009023599083132A8FBF72EFE32A8FBF790
:104A500069FD04462046FFF7FBFE18B1BAA0FBF73C
:104A600017FC02E0BEA0FBF713FC48E10522C34996
:104A70003598C01CFBF787FDC8B9359890F86400DD
:104A8000A0F108023599C91D32A8FBF70DFE32A826
:104A9000FBF748FD84B22046FFF738FF18B1B8A0F5
:104AA000FBF7F6FB02E0BDA0FBF7F2FB27E10322D8
:104AB000C1493598C01CFBF766FDF8B9002404E035
:104AC000002021A90855601CC4B2442CF8DB35989D
:104AD00090F86400C21F3599891D21A800E00FE1FC
:104AE000FBF7E2FD21A800F06DFA18B1B3A0FBF7C7
:104AF000CFFB02E0B7A0FBF7CBFB00E10522BC49EE
:104B00003598C01CFBF73FFDC8B9359890F8640094
:104B1000A0F109023599083132A8FBF7C5FD32A88A
:104B2000FBF700FD0446204600F0DEFA18B1B1A004
:104B3000FBF7AEFB02E0B4A0FBF7AAFBDFE0052227
:104B4000B6493598C01CFBF71EFD28B9FFF748FC95
:104B5000B3A0FBF79DFBD2E00622B5493598C01CF7
:104B6000FBF711FD002841D16EA0FBF791FBB1A02E
:104B7000FBF78EFBB7A0FBF78BFB01F0AFFB044606
:104B80002246BAA132A8FBF78FFB32A8FBF780FBC5
:104B900064A0FBF77DFB63A0FBF77AFBB4A0FBF7F7
:104BA00077FB01F0A1FB04462246B0A132A8FBF737
:104BB0007BFB32A8FBF76CFB5AA0FBF769FB59A003
:104BC000FBF766FB684601F08BF9B2A0FBF760FBD0
:104BD0006946BCA0FBF75CFB96A0FBF759FB51A014
:104BE000FBF756FB4FA0FBF753FB88E00722B749C2
:104BF0003598C01CFBF7C7FC30B9B5A0FBF748FBE4
:104C000048A0FBF745FB7AE00422B4493598C01C64
:104C1000FBF7B9FC00286FD142A0FBF739FB20A8B5
:104C2000FEF704FB48B1AEA0FBF732FB20A8FBF770
:104C30002FFB3CA0FBF72CFB02E0ABA0FBF728FB13
:104C40001EA8FEF725FB78B1ACA0FBF721FBBDF851
:104C50007820ADA132A8FBF727FB32A8FBF718FBA1
:104C600030A0FBF715FB02E0A8A0FBF711FB1EA884
:104C7000FEF7CAFA78B1AAA0FBF70AFBBDF87820C4
:104C8000A1A132A8FBF710FB32A8FBF701FB25A07E
:104C9000FBF7FEFA02E0A7A0FBF7FAFA1FA8FEF75F
:104CA0009BFA70B1AAA0FBF7F3FA97A132A81F9A5A
:104CB000FBF7FAFA32A8FBF7EBFA1AA0FBF7E8FACF
:104CC00002E0A7A0FBF7E4FA1FA8FEF7F3FA70B121
:104CD000A9A0FBF7DDFA8CA132A81F9AFBF7E4FA32
:104CE00032A8FBF7D5FA0FA0FBF7D2FA02E0A5A095
:104CF000FBF7CEFA03E0FFE7A7A0FBF7C9FA02E053
:104D0000AAA0FBF7C5FA5DE6167300081A7300083F
:104D10002D3E736574207573657220626175642021
:104D20004F4B0D0A0D0A00002D3E736574207573FC
:104D300065722062617564204641494C0D0A0D0A76
:104D400000000000207300082D3E73657420696424
:104D50006C652074696D65204F4B0D0A0D0A0000CB
:104D60002D3E7365742069646C652074696D6520DF
:104D70004641494C0D0A0D0A000000002673000848
:104D80002D3E7365742062756666206C656E67746F
:104D900068204F4B0D0A0D0A000000002D3E736580
:104DA000742062756666206C656E67746820464183
:104DB000494C0D0A0D0A00002C7300082D3E736546
:104DC000742049502F446F6D61696E204F4B0D0A5E
:104DD0000D0A00002D3E7365742049502F446F6DFD
:104DE00061696E204641494C0D0A0D0A0000000021
:104DF000307300082D3E73657420706F7274204FFD
:104E00004B0D0A0D0A0000002D3E73657420706F73
:104E10007274204641494C0D0A0D0A003B7300088C
:104E20002D3E5245534554204F4B0D0A0D0A0000AC
:104E3000417300083D3D3D3D3D3D3D3D3D3D3D3DDA
:104E40003D3D3D3D3D3D3D3D3D3D3D3D3D3D3D3D92
:104E50000D0A000043757272656E74206672656596
:104E6000206D656D6F7279203D200000256C750006
:104E70004D696E696D756D2066726565206D656D35
:104E80006F727920696E20686973746F7279203D42
:104E900020000000C8CECEF1C3FB2020202020201F
:104EA000C8CECEF1D7B4CCAC20D3C5CFC8BCB620C9
:104EB000CAA3D3E0D5BB20C8CECEF1D0F2BAC50D7F
:104EC0000A00000025730D0A000000004873000866
:104ED00032303138313031312D3100003673000835
:104EE0002D3E4950203D20002D3E495020726561E5
:104EF00064204641494C0D0A000000002D3E504FF1
:104F00005254203D20000000257500002D3E504FDA
:104F100052542072656164204641494C0D0A0000DC
:104F20002D3E62756666206C656E677468203D2054
:104F3000000000002D3E62756666206C656E677429
:104F4000682072656164204641494C0D0A000000EA
:104F50002D3E69646C652074696D65203D200000FC
:104F60002D3E69646C652074696D652072656164AD
:104F7000204641494C0D0A002D3E42415544203DFA
:104F8000200000002D3E424155442072656164209E
:104F90004641494C0D0A00002D3E6E6F2074686931
:104FA0007320636D640D0A0D0A0000002D3E636DD1
:104FB0006420666F726D6174206572720D0A0D0A4D
:104FC000000000002DE9F04792B00746BA460024E1
:104FD00004E000200DF80400601CC4B2482CF8DB8B
:104FE00039466846FBF7ABFA6846FBF7E5FAC5B207
:104FF00000200DF80500FCF7E9F83520FBF7DEFF8F
:105000002B48FBF7E1FF00241FE04FF0000900BF31
:105010005AF82410264A02EB8400FCF74BF80646A7
:10502000042E05D04846411C01F0FF090328EFDBA0
:10503000042E08D01FA0FBF72BF9FCF711F8002075
:1050400012B0BDE8F087601CC4B2E91705EB91719E
:10505000012202EBA101A142D7DC4FF0000900249C
:105060004FF0000806E01DF80400404400F0FF087F
:10507000601CC4B2AC42F6DB00BF41460C48443071
:10508000FBF7F8FF0646042E05D04846411C01F008
:10509000FF090328F1DB042E06D00CA0FBF7F8F87B
:1050A000FBF7DEFF0020CBE7FBF7DAFF0120C7E7C5
:1050B00000F80008666C6173682077726974652077
:1050C0006970206572720D0A0D0A0000666C6173CA
:1050D000682077726974652069702063686B206549
:1050E00072720D0A0D0A00002DE9F0410546B5F572
:1050F000803F02D30020BDE8F08100260027FCF7A6
:1051000065F83520FBF75AFF1B48FBF75DFF00BF32
:10511000A9B21948FBF7AEFF0446042C04D0304670
:10512000711CCEB20328F3DB042C06D013A0FBF7CE
:10513000AFF8FBF795FF0020DDE7002605EB152013
:10514000C7B200BF39460C48801CFBF793FF0446EA
:10515000042C04D03046711CCEB20328F2DB042CA0
:1051600006D006A0FBF794F8FBF77AFF0020C2E711
:10517000FBF776FF0120BEE700F40008666C617360
:105180006820777269746520706F7274206572721E
:105190000D0A0D0A0000000010B50446FFF710FCD0
:1051A00010BD00002DE9F04104464FF49660B4FBB9
:1051B000F0F100FB114060B14FF49660B4FBF0F0E9
:1051C00000F0010028B92448844202D20020BDE842
:1051D000F08100260027FBF7F9FF3520FBF7EEFEF4
:1051E0001E48FBF7F1FE00BF21461C48FBF762FF9B
:1051F0000546042D04D03046711CCEB20328F3DBE3
:10520000042D06D016A0FBF743F8FBF729FF00207A
:10521000DDE70026200C00EB146000EB1420204496
:10522000C7B200BF39460D48001DFBF723FF0546F6
:10523000042D04D03046711CCEB20328F2DB042DBD
:1052400006D007A0FBF724F8FBF70AFF0020BEE713
:10525000FBF706FF0120BAE720AA440000E8000897
:10526000666C617368207772697465206261756429
:10527000206572720D0A0D0A000000001CB504467C
:1052800000F0BEFBFEF7EAF8FDF78CF9FEF762F8D6
:10529000FEF742F91849C86800F0E8FA4FF4E13027
:1052A00000F0BEF91449C86800F05AFA13480A2100
:1052B00000238022CDE9001011A1144801F032FC36
:1052C00013480B2100238022CDE9001011A11448BE
:1052D00001F028FC1348092100238022CDE90010A9
:1052E00011A1144801F01EFC1348006800F036FDBF
:1052F00000F0CAFB1CBD00007C410020040000201F
:10530000656332305F7461736B0000008D3100089B
:105310000800002073746D33325F7461736B00009A
:1053200041550008100000207365745F7461736B51
:1053300000000000995100080000002010B504464C
:10534000206810B12046FFF7DBF9012010BD0000F6
:1053500008B500266CE0374881686846FDF7ECFF29
:10536000C5B2012D5ED101F01DFC324948600846EE
:10537000007D012806D00098FEF7C4F82EA0FAF7A9
:1053800087FF55E0FF24002600BF0099098888B2F6
:10539000FFF776F804463046711CCEB2032801DAD6
:1053A000012CF2D1012C33D1002700BF009AD2E9A1
:1053B0000010002200F046F9FFF710F90446012C16
:1053C00003D025A0FAF764FF0DE00099098888B2A0
:1053D000FEF798FF044634B96F240220154908757A
:1053E00022A0FAF755FF3846791CCFB2032801DA1C
:1053F000012CDBD1012C0AD021A0FAF749FF6F2C38
:1054000005D000200B49087522A0FAF741FF05E0FE
:1054100026A0FAF73DFF0220064908750098FEF71E
:1054200071F805E002200349087525A0FAF730FF5E
:1054300091E700007C41002073746D333220726567
:1054400063762064617461206E6F206465616C779F
:105450006974680D0A000000656332302073656E60
:1054600064206572720D0A0D0A00000073656E6497
:105470006564206E6F2061636B0D0A0D0A000000E9
:1054800073656E642064617461206572720D0A0D2B
:105490000A00000073656E646564206461746120B5
:1054A0006661696C0D0A0D0A0000000068656164A0
:1054B000206973206E6F2061636B0D0A0D0A000076
:1054C000676C6F62616C2074696D656F75740D0A2D
:1054D0000D0A000010B5002200210AE001EB410096
:1054E000154B03EB8000007A08B9012207E0481C45
:1054F000C1B2124890F85900401E8842EEDC00BF4D
:10550000012A02D10D48C1740DE00C4890F85900F1
:10551000401E0A4BD8740020DB7C03EB4303064C8F
:1055200004EB830318720548C07C00EB4000024B7B
:1055300003EB800010BD0000044100207C410020EE
:1055400010B50446FFF704FF10BD000010B586B08B
:105550000446012144F20400FBF768FF4FF4007099
:10556000ADF8140018208DF8170003208DF81600F0
:1055700005A92948FBF755FE4FF48060ADF81400EB
:1055800004208DF8170005A92348FBF74AFE23489D
:10559000FCF766FA01940020ADF80800ADF80A00A7
:1055A000ADF80C00ADF810000C20ADF80E0001A90C
:1055B0001A48FCF7F3FA012240F224411748FCF79D
:1055C000C7FA012260211548FCF7C2FA40211348AE
:1055D000FCF718FA20211148FCF714FA10210F48A3
:1055E000FCF710FA08210D48FCF70CFA01210B48D2
:1055F000FCF720FA25208DF8000006208DF8010028
:1056000000208DF8020001208DF803006846FBF7AA
:105610009BFE06B010BD00000008014000380140AC
:1056200010B504462046FFF791FFFDF721F8FDF77E
:10563000DBF8024800680249086010BDC400002081
:10564000C000002070B504460E4615460CB9002077
:1056500070BD0DB10B4805604FF40050FBF79EFB89
:105660004FF40040FBF79AFB00210748FBF7B2FB21
:10567000054844380465866401210348FBF7AAFB0A
:105680000120E5E7C00000204400024010B586B0CC
:10569000044601210420FBF7C9FE01214804FBF761
:1056A000A5FE0420ADF8140018208DF81700032083
:1056B0008DF8160005A92848FBF7B3FD0820ADF8C2
:1056C000140004208DF8170005A92348FBF7A9FD55
:1056D0002248FCF7C5F901940020ADF80800ADF8A8
:1056E0000A00ADF80C00ADF810000C20ADF80E006B
:1056F00001A91A48FCF752FA012240F22441174846
:10570000FCF726FA012260211448FCF721FA402117
:105710001248FCF777F920211048FCF773F91021A3
:105720000E48FCF76FF908210C48FCF76BF90121D2
:105730000A48FCF77FF926208DF8000007208DF835
:10574000010000208DF8020001208DF8030068465A
:10575000FBF7FAFD06B010BD000801400044004010
:1057600010B504462046FFF791FFFCF7BDFFFDF79B
:1057700085F810BD70B504460E46154614B90DB136
:10578000002070BD0D4805604FF40050FBF706FB8C
:105790004FF40040FBF702FB00210948FBF71AFB1E
:1057A00007480C30046006488038C0F88460012146
:1057B0000348FBF70FFB0120E3E70000CC000020CB
:1057C0008000024010B586B0044601210820FBF796
:1057D0002DFE01218804FBF709FE4FF48060ADF82F
:1057E000140003208DF8160018208DF8170005A965
:1057F0001C48FBF716FD4FF40060ADF814000420C0
:105800008DF8170005A91748FBF70BFD27208DF829
:10581000000008208DF8010000208DF80200012012
:105820008DF803006846FBF78FFD01940020ADF86A
:105830000800ADF80A00ADF80C00ADF810000C201F
:10584000ADF80E0001A90848FCF7A8F9012240F2C2
:1058500024410548FCF77CF901210348FCF7EAF8EC
:1058600006B010BD000C01400048004010B50446D1
:105870002046FFF7A7FFFCF7C3FEFCF771FF0248C5
:105880000249086010BD000051470008B400002024
:1058900008B569460248006801F076F808BD0000C6
:1058A000EC00002010B504460023224619460248A9
:1058B000006800F0C3FD10BDEC00002001460A693D
:1058C000D1E901309860D1E90103586050688842FD
:1058D00001D188685060002008611068401E106087
:1058E000106870472DE9F0410546884616460024A9
:1058F000202700F097FC21480068804539D300BF7D
:105900007F1E07EB87021E4B03EB820104EBC402F0
:1059100005EB82000122FEF755F90444002FEFD178
:1059200004EBC40105EB8100022216490968FEF769
:1059300049F9044404EBC40105EB81000222124939
:105940000968FEF73FF9044404EBC40105EB81004C
:1059500004220E49FEF736F9044404EBC40105EBBA
:10596000810003220A49FEF72DF904440EB10020FC
:10597000306001F093FA2046BDE8F081700000200D
:10598000303D00206400002068000020EC3F002033
:105990000040002000F1080141604FF0FF318160BC
:1059A00000F10801C1600161002101607047002120
:1059B0000161704710B502460B685C1C0CB9106998
:1059C00007E002F1080000E04068446824689C4257
:1059D000FAD944684C604C68A160886041600A61F3
:1059E0001468641C146010BD42684A6093688B6040
:1059F000936859609160086103685B1C036070479D
:105A000010B500BF502080F31188BFF34F8FBFF354
:105A10006F8F00BF0B480068401C0A4908600846A9
:105A2000006801280DD108480068C0B208B90120FB
:105A300000E0002028B94FF4BD7204A10EA0FAF7CF
:105A400027FC10BD5400002004ED00E02E2E5C4623
:105A500072656552544F535C706F727461626C650D
:105A60005C525644535C41524D5F434D335C706F02
:105A700072742E63000000004572726F723A2573D3
:105A80002C25640D0A00000010B50B48006828B9E9
:105A900040F2811209A114A0FAF7FAFB0648006847
:105AA000401E054908600846006820B9002080F3C0
:105AB000118800BF00BF10BD540000202E2E5C4690
:105AC00072656552544F535C706F727461626C659D
:105AD0005C525644535C41524D5F434D335C706F92
